{
  "address": "0x6Ec84c389121f59D925F4c3f64672Da2D5dCF393",
  "abi": [
    {
      "inputs": [
        {
          "internalType": "address",
          "name": "_liquidityProvider",
          "type": "address"
        },
        {
          "internalType": "address",
          "name": "_oracle",
          "type": "address"
        },
        {
          "internalType": "string",
          "name": "_question",
          "type": "string"
        },
        {
          "internalType": "uint256",
          "name": "_initialTokenValue",
          "type": "uint256"
        },
        {
          "internalType": "uint8",
          "name": "_initialYesProbability",
          "type": "uint8"
        },
        {
          "internalType": "uint8",
          "name": "_percentageToLock",
          "type": "uint8"
        }
      ],
      "stateMutability": "payable",
      "type": "constructor"
    },
    {
      "inputs": [
        {
          "internalType": "address",
          "name": "owner",
          "type": "address"
        }
      ],
      "name": "OwnableInvalidOwner",
      "type": "error"
    },
    {
      "inputs": [
        {
          "internalType": "address",
          "name": "account",
          "type": "address"
        }
      ],
      "name": "OwnableUnauthorizedAccount",
      "type": "error"
    },
    {
      "inputs": [],
      "name": "PredictionMarket__AmountMustBeGreaterThanZero",
      "type": "error"
    },
    {
      "inputs": [],
      "name": "PredictionMarket__ETHTransferFailed",
      "type": "error"
    },
    {
      "inputs": [
        {
          "internalType": "uint256",
          "name": "_tradingAmount",
          "type": "uint256"
        },
        {
          "internalType": "uint256",
          "name": "_allowance",
          "type": "uint256"
        }
      ],
      "name": "PredictionMarket__InsufficientAllowance",
      "type": "error"
    },
    {
      "inputs": [
        {
          "internalType": "uint256",
          "name": "_tradingAmount",
          "type": "uint256"
        },
        {
          "internalType": "uint256",
          "name": "_userBalance",
          "type": "uint256"
        }
      ],
      "name": "PredictionMarket__InsufficientBalance",
      "type": "error"
    },
    {
      "inputs": [],
      "name": "PredictionMarket__InsufficientLiquidity",
      "type": "error"
    },
    {
      "inputs": [
        {
          "internalType": "enum PredictionMarket.Outcome",
          "name": "_outcome",
          "type": "uint8"
        },
        {
          "internalType": "uint256",
          "name": "_amountToken",
          "type": "uint256"
        }
      ],
      "name": "PredictionMarket__InsufficientTokenReserve",
      "type": "error"
    },
    {
      "inputs": [],
      "name": "PredictionMarket__InsufficientWinningTokens",
      "type": "error"
    },
    {
      "inputs": [],
      "name": "PredictionMarket__InvalidPercentageToLock",
      "type": "error"
    },
    {
      "inputs": [],
      "name": "PredictionMarket__InvalidProbability",
      "type": "error"
    },
    {
      "inputs": [],
      "name": "PredictionMarket__MustProvideETHForInitialLiquidity",
      "type": "error"
    },
    {
      "inputs": [],
      "name": "PredictionMarket__MustSendExactETHAmount",
      "type": "error"
    },
    {
      "inputs": [],
      "name": "PredictionMarket__OnlyOracleCanReport",
      "type": "error"
    },
    {
      "inputs": [],
      "name": "PredictionMarket__OwnerCannotCall",
      "type": "error"
    },
    {
      "inputs": [],
      "name": "PredictionMarket__PredictionAlreadyReported",
      "type": "error"
    },
    {
      "inputs": [],
      "name": "PredictionMarket__PredictionNotReported",
      "type": "error"
    },
    {
      "inputs": [],
      "name": "PredictionMarket__TokenTransferFailed",
      "type": "error"
    },
    {
      "anonymous": false,
      "inputs": [
        {
          "indexed": true,
          "internalType": "address",
          "name": "provider",
          "type": "address"
        },
        {
          "indexed": false,
          "internalType": "uint256",
          "name": "ethAmount",
          "type": "uint256"
        },
        {
          "indexed": false,
          "internalType": "uint256",
          "name": "tokensAmount",
          "type": "uint256"
        }
      ],
      "name": "LiquidityAdded",
      "type": "event"
    },
    {
      "anonymous": false,
      "inputs": [
        {
          "indexed": true,
          "internalType": "address",
          "name": "provider",
          "type": "address"
        },
        {
          "indexed": false,
          "internalType": "uint256",
          "name": "ethAmount",
          "type": "uint256"
        },
        {
          "indexed": false,
          "internalType": "uint256",
          "name": "tokensAmount",
          "type": "uint256"
        }
      ],
      "name": "LiquidityRemoved",
      "type": "event"
    },
    {
      "anonymous": false,
      "inputs": [
        {
          "indexed": true,
          "internalType": "address",
          "name": "oracle",
          "type": "address"
        },
        {
          "indexed": false,
          "internalType": "enum PredictionMarket.Outcome",
          "name": "winningOutcome",
          "type": "uint8"
        },
        {
          "indexed": false,
          "internalType": "address",
          "name": "winningToken",
          "type": "address"
        }
      ],
      "name": "MarketReported",
      "type": "event"
    },
    {
      "anonymous": false,
      "inputs": [
        {
          "indexed": true,
          "internalType": "address",
          "name": "resolver",
          "type": "address"
        },
        {
          "indexed": false,
          "internalType": "uint256",
          "name": "totalEthToSend",
          "type": "uint256"
        }
      ],
      "name": "MarketResolved",
      "type": "event"
    },
    {
      "anonymous": false,
      "inputs": [
        {
          "indexed": true,
          "internalType": "address",
          "name": "previousOwner",
          "type": "address"
        },
        {
          "indexed": true,
          "internalType": "address",
          "name": "newOwner",
          "type": "address"
        }
      ],
      "name": "OwnershipTransferred",
      "type": "event"
    },
    {
      "anonymous": false,
      "inputs": [
        {
          "indexed": true,
          "internalType": "address",
          "name": "buyer",
          "type": "address"
        },
        {
          "indexed": false,
          "internalType": "enum PredictionMarket.Outcome",
          "name": "outcome",
          "type": "uint8"
        },
        {
          "indexed": false,
          "internalType": "uint256",
          "name": "amount",
          "type": "uint256"
        },
        {
          "indexed": false,
          "internalType": "uint256",
          "name": "ethAmount",
          "type": "uint256"
        }
      ],
      "name": "TokensPurchased",
      "type": "event"
    },
    {
      "anonymous": false,
      "inputs": [
        {
          "indexed": true,
          "internalType": "address",
          "name": "seller",
          "type": "address"
        },
        {
          "indexed": false,
          "internalType": "enum PredictionMarket.Outcome",
          "name": "outcome",
          "type": "uint8"
        },
        {
          "indexed": false,
          "internalType": "uint256",
          "name": "amount",
          "type": "uint256"
        },
        {
          "indexed": false,
          "internalType": "uint256",
          "name": "ethAmount",
          "type": "uint256"
        }
      ],
      "name": "TokensSold",
      "type": "event"
    },
    {
      "anonymous": false,
      "inputs": [
        {
          "indexed": true,
          "internalType": "address",
          "name": "redeemer",
          "type": "address"
        },
        {
          "indexed": false,
          "internalType": "uint256",
          "name": "amount",
          "type": "uint256"
        },
        {
          "indexed": false,
          "internalType": "uint256",
          "name": "ethAmount",
          "type": "uint256"
        }
      ],
      "name": "WinningTokensRedeemed",
      "type": "event"
    },
    {
      "inputs": [],
      "name": "addLiquidity",
      "outputs": [],
      "stateMutability": "payable",
      "type": "function"
    },
    {
      "inputs": [
        {
          "internalType": "enum PredictionMarket.Outcome",
          "name": "_outcome",
          "type": "uint8"
        },
        {
          "internalType": "uint256",
          "name": "_amountTokenToBuy",
          "type": "uint256"
        }
      ],
      "name": "buyTokensWithETH",
      "outputs": [],
      "stateMutability": "payable",
      "type": "function"
    },
    {
      "inputs": [
        {
          "internalType": "enum PredictionMarket.Outcome",
          "name": "_outcome",
          "type": "uint8"
        },
        {
          "internalType": "uint256",
          "name": "_tradingAmount",
          "type": "uint256"
        }
      ],
      "name": "getBuyPriceInEth",
      "outputs": [
        {
          "internalType": "uint256",
          "name": "",
          "type": "uint256"
        }
      ],
      "stateMutability": "view",
      "type": "function"
    },
    {
      "inputs": [],
      "name": "getPrediction",
      "outputs": [
        {
          "internalType": "string",
          "name": "question",
          "type": "string"
        },
        {
          "internalType": "string",
          "name": "outcome1",
          "type": "string"
        },
        {
          "internalType": "string",
          "name": "outcome2",
          "type": "string"
        },
        {
          "internalType": "address",
          "name": "oracle",
          "type": "address"
        },
        {
          "internalType": "uint256",
          "name": "initialTokenValue",
          "type": "uint256"
        },
        {
          "internalType": "uint256",
          "name": "yesTokenReserve",
          "type": "uint256"
        },
        {
          "internalType": "uint256",
          "name": "noTokenReserve",
          "type": "uint256"
        },
        {
          "internalType": "bool",
          "name": "isReported",
          "type": "bool"
        },
        {
          "internalType": "address",
          "name": "yesToken",
          "type": "address"
        },
        {
          "internalType": "address",
          "name": "noToken",
          "type": "address"
        },
        {
          "internalType": "address",
          "name": "winningToken",
          "type": "address"
        },
        {
          "internalType": "uint256",
          "name": "ethCollateral",
          "type": "uint256"
        },
        {
          "internalType": "uint256",
          "name": "lpTradingRevenue",
          "type": "uint256"
        },
        {
          "internalType": "address",
          "name": "predictionMarketOwner",
          "type": "address"
        },
        {
          "internalType": "uint256",
          "name": "initialProbability",
          "type": "uint256"
        },
        {
          "internalType": "uint256",
          "name": "percentageLocked",
          "type": "uint256"
        }
      ],
      "stateMutability": "view",
      "type": "function"
    },
    {
      "inputs": [
        {
          "internalType": "enum PredictionMarket.Outcome",
          "name": "_outcome",
          "type": "uint8"
        },
        {
          "internalType": "uint256",
          "name": "_tradingAmount",
          "type": "uint256"
        }
      ],
      "name": "getSellPriceInEth",
      "outputs": [
        {
          "internalType": "uint256",
          "name": "",
          "type": "uint256"
        }
      ],
      "stateMutability": "view",
      "type": "function"
    },
    {
      "inputs": [],
      "name": "i_initialTokenValue",
      "outputs": [
        {
          "internalType": "uint256",
          "name": "",
          "type": "uint256"
        }
      ],
      "stateMutability": "view",
      "type": "function"
    },
    {
      "inputs": [],
      "name": "i_initialYesProbability",
      "outputs": [
        {
          "internalType": "uint256",
          "name": "",
          "type": "uint256"
        }
      ],
      "stateMutability": "view",
      "type": "function"
    },
    {
      "inputs": [],
      "name": "i_noToken",
      "outputs": [
        {
          "internalType": "contract PredictionMarketToken",
          "name": "",
          "type": "address"
        }
      ],
      "stateMutability": "view",
      "type": "function"
    },
    {
      "inputs": [],
      "name": "i_oracle",
      "outputs": [
        {
          "internalType": "address",
          "name": "",
          "type": "address"
        }
      ],
      "stateMutability": "view",
      "type": "function"
    },
    {
      "inputs": [],
      "name": "i_percentageLocked",
      "outputs": [
        {
          "internalType": "uint256",
          "name": "",
          "type": "uint256"
        }
      ],
      "stateMutability": "view",
      "type": "function"
    },
    {
      "inputs": [],
      "name": "i_yesToken",
      "outputs": [
        {
          "internalType": "contract PredictionMarketToken",
          "name": "",
          "type": "address"
        }
      ],
      "stateMutability": "view",
      "type": "function"
    },
    {
      "inputs": [],
      "name": "owner",
      "outputs": [
        {
          "internalType": "address",
          "name": "",
          "type": "address"
        }
      ],
      "stateMutability": "view",
      "type": "function"
    },
    {
      "inputs": [
        {
          "internalType": "uint256",
          "name": "_amount",
          "type": "uint256"
        }
      ],
      "name": "redeemWinningTokens",
      "outputs": [],
      "stateMutability": "nonpayable",
      "type": "function"
    },
    {
      "inputs": [
        {
          "internalType": "uint256",
          "name": "_ethToWithdraw",
          "type": "uint256"
        }
      ],
      "name": "removeLiquidity",
      "outputs": [],
      "stateMutability": "nonpayable",
      "type": "function"
    },
    {
      "inputs": [],
      "name": "renounceOwnership",
      "outputs": [],
      "stateMutability": "nonpayable",
      "type": "function"
    },
    {
      "inputs": [
        {
          "internalType": "enum PredictionMarket.Outcome",
          "name": "_winningOutcome",
          "type": "uint8"
        }
      ],
      "name": "report",
      "outputs": [],
      "stateMutability": "nonpayable",
      "type": "function"
    },
    {
      "inputs": [],
      "name": "resolveMarketAndWithdraw",
      "outputs": [
        {
          "internalType": "uint256",
          "name": "ethRedeemed",
          "type": "uint256"
        }
      ],
      "stateMutability": "nonpayable",
      "type": "function"
    },
    {
      "inputs": [],
      "name": "s_ethCollateral",
      "outputs": [
        {
          "internalType": "uint256",
          "name": "",
          "type": "uint256"
        }
      ],
      "stateMutability": "view",
      "type": "function"
    },
    {
      "inputs": [],
      "name": "s_isReported",
      "outputs": [
        {
          "internalType": "bool",
          "name": "",
          "type": "bool"
        }
      ],
      "stateMutability": "view",
      "type": "function"
    },
    {
      "inputs": [],
      "name": "s_lpTradingRevenue",
      "outputs": [
        {
          "internalType": "uint256",
          "name": "",
          "type": "uint256"
        }
      ],
      "stateMutability": "view",
      "type": "function"
    },
    {
      "inputs": [],
      "name": "s_question",
      "outputs": [
        {
          "internalType": "string",
          "name": "",
          "type": "string"
        }
      ],
      "stateMutability": "view",
      "type": "function"
    },
    {
      "inputs": [],
      "name": "s_winningToken",
      "outputs": [
        {
          "internalType": "contract PredictionMarketToken",
          "name": "",
          "type": "address"
        }
      ],
      "stateMutability": "view",
      "type": "function"
    },
    {
      "inputs": [
        {
          "internalType": "enum PredictionMarket.Outcome",
          "name": "_outcome",
          "type": "uint8"
        },
        {
          "internalType": "uint256",
          "name": "_tradingAmount",
          "type": "uint256"
        }
      ],
      "name": "sellTokensForEth",
      "outputs": [],
      "stateMutability": "nonpayable",
      "type": "function"
    },
    {
      "inputs": [
        {
          "internalType": "address",
          "name": "newOwner",
          "type": "address"
        }
      ],
      "name": "transferOwnership",
      "outputs": [],
      "stateMutability": "nonpayable",
      "type": "function"
    }
  ],
  "transactionHash": "0x125f57f13e746808e6ded57796e905c6b11a72bf51d0a67e81464c2729eafd62",
  "args": [
    "0x7f6Ba565e35BB23C307992feBD841D5b2d8c8011",
    "0x7f6Ba565e35BB23C307992feBD841D5b2d8c8011",
    "Will the green car win the race?",
    "10000000000000000",
    50,
    10
  ],
  "numDeployments": 1,
  "solcInputHash": "d44e070e421a80e87ea79c6919874bf4",
  "bytecode": "0x6101406040818152620033ee80380380916200001c8286620006f0565b843982019160c0918282850312620006eb57620000398262000714565b9060206200004981850162000714565b848301516001600160401b03949190858111620006eb57860195601f90898289011215620006eb57875199878b116200055157865198601f19939162000096838e01861689018c620006f0565b8c8b52878d83010111620006eb5760005b8c8110620006d7575050600086620000d59c8b010152606082015192620000dd60a060809d8e860162000729565b940162000729565b6001600160a01b039690959087168015620006bf57600080546001600160a01b03198116831782558916907f8be0079c531659141344cd1fd0a4f28419497f9722a3daafe3b4186f6b6457e09080a38c52895191898311620005515760019a8b54928c84811c94168015620006b4575b8a8510146200069e57838386951162000644575b5089928411600114620005df5750600092620005d3575b5050600019600383901b1c191690891b1788555b8160a0523415620005c2573460025560ff169182158015620005b6575b620005a55782895260ff16908115801562000599575b62000588578160e052670de0b6b3a764000080340290348204036200053b578115620005725704855196610d86808901898110838211176200055157898d918c8e60036200266895878787398085528401526259657360e81b60a0840152808c840152820152605960f81b60e0820152338b8201528560608201526101009b8c910301906000f0801562000567578a5288519282840190811184821017620005515760028e8c9486948539808352820152614e6f60f01b60a08201528c898201528b8d820152602760f91b60e0820152338a8201528460608201520301906000f097881562000530578190610120998a521b90808204600214901517156200053b57606491620002cf9162000738565b046064620002de828462000738565b049160640360ff81116200053b5760649160ff620002fd921662000738565b8651865163a9059cbb60e01b80825233600483015260248201959095529392909104919085908490604490829060009089165af192831562000530579085929160009462000509575b50885187519182523360048301526024820192909252929383911681600081604481015b03925af1928315620004fe57600093620004c8575b505015908115620004be575b50620004ae575192611f019485620007678639518481816105b601528181610b380152611180015260a05184818161024701528181610423015281816105dd0152818161079c015281816110d9015281816112330152611ac40152518381816101de0152610640015260e0518381816106670152610a96015251828181610277015281816104d6015281816107e101528181610b8d01528181610c4f01528181610d1f015281816114820152818161198801528181611a3301528181611bd201528181611c4b01528181611cef0152611dff0152518181816102e2015281816104b20152818161082201528181610be201528181610f37015281816113c5015281816115d80152818161196701528181611bf601528181611c2a0152611e230152f35b516318161dad60e21b8152600490fd5b905015386200038b565b620004ed929350803d10620004f6575b620004e48183620006f0565b8101906200074c565b9038806200037f565b503d620004d8565b84513d6000823e3d90fd5b6200036a94506200052990843d8611620004f657620004e48183620006f0565b9362000346565b86513d6000823e3d90fd5b634e487b7160e01b600052601160045260246000fd5b634e487b7160e01b600052604160045260246000fd5b89513d6000823e3d90fd5b634e487b7160e01b600052601260045260246000fd5b855163103731c360e21b8152600490fd5b506064821015620001bf565b85516324f7391760e21b8152600490fd5b506064831015620001a9565b855163fe6ef5a160e01b8152600490fd5b01519050388062000178565b8c94929192169184600052896000209260005b8b8282106200062d575050841162000613575b505050811b0188556200018c565b015160001960f88460031b161c1916905538808062000605565b8385015186558f97909501949384019301620005f2565b90919293508c600052896000208480870160051c8201928c881062000694575b918f918897969594930160051c01915b8281106200068457505062000161565b600081558796508f910162000674565b9250819262000664565b634e487b7160e01b600052602260045260246000fd5b93607f16936200014d565b8951631e4fbdf760e01b815260006004820152602490fd5b8181018801518b82018901528701620000a7565b600080fd5b601f909101601f19168101906001600160401b038211908210176200055157604052565b51906001600160a01b0382168203620006eb57565b519060ff82168203620006eb57565b818102929181159184041417156200053b57565b90816020910312620006eb57518015158103620006eb579056fe608060408181526004908136101561001657600080fd5b600092833560e01c90816306a9cd5e146114295750806314926d98146113f45780631816ca6f146113b05780632dc7fd76146113945780634c5b59a5146111af5780635cb2deb51461116b57806365e23abc14610f9c57806370a38aee14610cd8578063715018a614610c7e57806379b3d94a14610c3a5780637c1bb47e14610c17578063892d0f5014610b005780638da5cb5b14610ad85780638dfeb95214610ab9578063910ec81b14610a7e57806391c721e314610a565780639c8f9f23146107505780639f615ee11461046f578063aa7a939914610446578063ac3b90bb1461040b578063df592ec3146103ec578063e8078d9414610205578063f1ce1640146101c65763f2fde38b1461012c57600080fd5b346101c25760203660031901126101c2576001600160a01b038235818116939192908490036101be5761015d6117d5565b83156101a8575050600054826bffffffffffffffffffffffff60a01b821617600055167f8be0079c531659141344cd1fd0a4f28419497f9722a3daafe3b4186f6b6457e0600080a380f35b51631e4fbdf760e01b8152908101849052602490fd5b8480fd5b8280fd5b838234610201578160031936011261020157602090517f00000000000000000000000000000000000000000000000000000000000000008152f35b5080fd5b50826003193601126101c2576102196117d5565b60ff825460a01c166103df5734156103d257670de0b6b3a764000080340290348204036103bf5761026c84917f00000000000000000000000000000000000000000000000000000000000000009061182a565b926001600160a01b037f000000000000000000000000000000000000000000000000000000000000000081169190823b1561039d5784516340c10f1960e01b80825230848301908152602081018990529094869183919082908490829060400103925af180156103b5579085916103a1575b50507f00000000000000000000000000000000000000000000000000000000000000001691823b1561039d578451908152309181019182526020820186905291839183919082908490829060400103925af180156103935761037f575b50507fac1d76749e5447b7b16f5ab61447e1bd502f3bb4807af3b28e620d1700a6ee459061036b3460025461184a565b60025580519234845260208401523392a280f35b61038890611659565b6101c257823861033b565b83513d84823e3d90fd5b8380fd5b6103aa90611659565b61039d5783386102de565b86513d87823e3d90fd5b634e487b7160e01b845260118352602484fd5b516309c860a960e31b8152fd5b516378e34bb960e01b8152fd5b8382346102015781600319360112610201576020906002549051908152f35b838234610201578160031936011261020157602090517f00000000000000000000000000000000000000000000000000000000000000008152f35b50823461046c578060031936011261046c575060ff6020925460a01c1690519015158152f35b80fd5b5082903461020157816003193601126102015761048a6116a5565b600254600354845484516306fdde0360e01b80825294966001600160a01b03928316959394937f00000000000000000000000000000000000000000000000000000000000000008416917f000000000000000000000000000000000000000000000000000000000000000085169181858d81865afa94851561072a578295610734575b50895190815281818d81875afa90811561072a578291610708575b508951996370a0823160e01b9c8d8c5230818d015260209d8e8d602481895afa9c8d156106fe578f90869e6106cf575b5083519182523083830152816024818a5afa9485156106c45794610690575b50549581519d8e809e6102008083528201610591916117b0565b918183039101526105a1916117b0565b908c8203908d01526105b2916117b0565b98857f00000000000000000000000000000000000000000000000000000000000000001660608c01527f000000000000000000000000000000000000000000000000000000000000000060808c015260a08b015260c08a01528260a01c60ff16151560e08a0152610100890152610120880152166101408601526101608501526101808401526101a08301527f00000000000000000000000000000000000000000000000000000000000000006101c08301527f00000000000000000000000000000000000000000000000000000000000000006101e08301520390f35b9093508d81813d83116106bd575b6106a88183611683565b810103126106b85751928e610577565b600080fd5b503d61069e565b8351903d90823e3d90fd5b809e50813d83116106f7575b6106e58183611683565b810103126106b8578e9c519c38610558565b503d6106db565b83513d87823e3d90fd5b61072491503d8084833e61071c8183611683565b810190611e6c565b8c610528565b8a513d84823e3d90fd5b6107499195503d8084833e61071c8183611683565b938c61050d565b5082903461020157602090816003193601126101c2578335916107716117d5565b60ff855460a01c16610a4657670de0b6b3a7640000808402908482041484151715610a33576107c1907f00000000000000000000000000000000000000000000000000000000000000009061182a565b82516370a0823160e01b8082523088830152919291906001600160a01b037f00000000000000000000000000000000000000000000000000000000000000008116918481602481865afa908115610a295789916109fc575b5085116109de577f00000000000000000000000000000000000000000000000000000000000000001691855190815230898201528381602481865afa9081156109895788916109b1575b50841161099357803b15610971578451632770a7eb60e21b80825230828b01908152602081018790529092899183919082908490829060400103925af1801561098957908891610975575b5050813b1561097157845190815230818901908152602081018590529091879183919082908490829060400103925af1801561096757908691610953575b5080808087335af16108fc611896565b501561094357907f96cd817c6329656790ef8fba7675405193677d39619571282f5e21f3a98cd0599291610932856002546118c6565b60025582519485528401523392a280f35b8251632fdb18b560e01b81528690fd5b61095c90611659565b6101be5784876108ec565b84513d88823e3d90fd5b8680fd5b61097e90611659565b6109715786896108ae565b86513d8a823e3d90fd5b845163a4d71b8160e01b81526001818a015260248101859052604490fd5b90508381813d83116109d7575b6109c88183611683565b810103126106b8575189610863565b503d6109be565b855163a4d71b8160e01b81526000818b015260248101869052604490fd5b90508481813d8311610a22575b610a138183611683565b810103126106b857518a610819565b503d610a09565b87513d8b823e3d90fd5b634e487b7160e01b855260118652602485fd5b81516378e34bb960e01b81528590fd5b5090346101c257826003193601126101c2575490516001600160a01b03909116815260209150f35b838234610201578160031936011261020157602090517f00000000000000000000000000000000000000000000000000000000000000008152f35b8382346102015781600319360112610201576020906003549051908152f35b838234610201578160031936011261020157905490516001600160a01b039091168152602090f35b508290346102015760203660031901126102015782359060028210156101c257835460ff8160a01c16610a46576001600160a01b03907f000000000000000000000000000000000000000000000000000000000000000082163303610c0757939492937f54abe5cff8746fc59eefd3a10a4e9821354cd951ffef23d64fdb7939b6e2e419939085610be0577f0000000000000000000000000000000000000000000000000000000000000000905b6001600160a81b03191690831617600160a01b1790819055825194610bd4908690611857565b1660208401523392a280f35b7f000000000000000000000000000000000000000000000000000000000000000090610bae565b825163d101b32160e01b81528690fd5b83823461020157602090610c33610c2d3661163a565b90611c1b565b9051908152f35b838234610201578160031936011261020157517f00000000000000000000000000000000000000000000000000000000000000006001600160a01b03168152602090f35b833461046c578060031936011261046c57610c976117d5565b600080546001600160a01b0319811682556001600160a01b03167f8be0079c531659141344cd1fd0a4f28419497f9722a3daafe3b4186f6b6457e08280a380f35b5090346101c257610ce83661163a565b90928115610f8d5760ff835460a01c16610f7e5784546001600160a01b039081163314610f6e576002851015610f5b5784610f35577f00000000000000000000000000000000000000000000000000000000000000005b169281516370a0823160e01b815233828201526020908181602481895afa908115610e99578891610f08575b50808511610eec57508251636eb1769f60e11b815233838201523060248201528181604481895afa908115610e99578891610ebf575b50808511610ea357508681610db68689611c1b565b96610dc3886003546118c6565b60035560648651809481936323b872dd60e01b835233898401523060248401528a60448401525af1918215610e99578892610e6c575b505015610e5e578580808087335af1610e10611896565b5015610e50575090610e4a7fdb6c1cc84b96330a9be015b7f4d49df42a035945bf4bc3423e48a6e4259dbb7b9392519283923396846118eb565b0390a280f35b9051632fdb18b560e01b8152fd5b90516318161dad60e21b8152fd5b610e8b9250803d10610e92575b610e838183611683565b8101906118d3565b3880610df9565b503d610e79565b84513d8a823e3d90fd5b90508360449351926377594e6960e01b84528301526024820152fd5b90508181813d8311610ee5575b610ed68183611683565b810103126106b8575138610da1565b503d610ecc565b905083604493519263053ab6d560e21b84528301526024820152fd5b90508181813d8311610f2e575b610f1f8183611683565b810103126106b8575138610d6b565b503d610f15565b7f0000000000000000000000000000000000000000000000000000000000000000610d3f565b634e487b7160e01b865260218452602486fd5b815163086b2ac360e41b81528490fd5b516378e34bb960e01b81529050fd5b51632688641b60e21b81529050fd5b50829034610201578160031936011261020157610fb76117d5565b82549160ff8360a01c161561115b5781516370a0823160e01b81523081860152602094919390919084906001600160a01b03168684602481845afa9384156110bf57829461112c575b50836110c9575b6110136003548761184a565b93813b156101c2578551632770a7eb60e21b815230858201908152602081019290925291839183919082908490829060400103925af180156110bf579082916110ab575b50808085335af1611066611896565b501561109d575081519081527f316a0bcd9820c43f9ba8738fd680d536a8ac65080f56f96833f696f6dd5a12fd843392a251908152f35b8251632fdb18b560e01b8152fd5b6110b490611659565b61046c578087611057565b85513d84823e3d90fd5b9450670de0b6b3a76400006110fe7f000000000000000000000000000000000000000000000000000000000000000085611801565b049460025495868111600014611123575061111b865b80976118c6565b600255611007565b61111b90611114565b9093508681813d8311611154575b6111448183611683565b810103126106b857519287611000565b503d61113a565b8151635fd4000d60e11b81528490fd5b838234610201578160031936011261020157517f00000000000000000000000000000000000000000000000000000000000000006001600160a01b03168152602090f35b5091903461020157602092836003193601126101c25781359180549060ff8260a01c16156113865783156113785784546001600160a01b039290831633146113695786839160248651809481936370a0823160e01b83523388840152165afa908115610967579085918791611338575b501061132a57670de0b6b3a76400006112587f000000000000000000000000000000000000000000000000000000000000000086611801565b04918580808086335af161126a611896565b501561131b5781541690813b15611317578351632770a7eb60e21b8152339181019182526020820186905291869183919082908490829060400103925af180156106fe576112e4575b507faeb4b315a6442ab135da41b9b7b337c712b68e5a6051ef6299965f3e58dbebbb929394610932826002546118c6565b936113107faeb4b315a6442ab135da41b9b7b337c712b68e5a6051ef6299965f3e58dbebbb9495611659565b93926112b3565b8580fd5b508251632fdb18b560e01b8152fd5b82516328f48e2f60e01b8152fd5b809250888092503d8311611362575b6113518183611683565b81010312611317578490513861121f565b503d611347565b50825163086b2ac360e41b8152fd5b8251632688641b60e21b8152fd5b8251635fd4000d60e11b8152fd5b83823461020157602090610c336113aa3661163a565b90611958565b838234610201578160031936011261020157517f00000000000000000000000000000000000000000000000000000000000000006001600160a01b03168152602090f35b838234610201578160031936011261020157611425906114126116a5565b90519182916020835260208301906117b0565b0390f35b929190506114363661163a565b919093821561162c575060ff835460a01c16610f7e5784546001600160a01b0393908416331461161e5761146a8386611958565b9384340361160f5760028610156115fc57856115d6577f00000000000000000000000000000000000000000000000000000000000000005b168251906370a0823160e01b825230838301526020918281602481855afa9081156115cc57899161159b575b508511611578576114e18660035461184a565b600355835163a9059cbb60e01b815233848201908152602081018790529091839183919082908c90829060400103925af1918215610e9957889261155b575b505015610e5e575090610e4a7f78408fb808ae2018d121a91ae47221eb4b85530dc14522ce2ddcb93083e269d69392519283923396846118eb565b6115719250803d10610e9257610e838183611683565b3880611520565b835163a4d71b8160e01b8152604490866115948287018b611857565b6024820152fd5b90508281813d83116115c5575b6115b28183611683565b810103126115c15751386114ce565b8880fd5b503d6115a8565b85513d8b823e3d90fd5b7f00000000000000000000000000000000000000000000000000000000000000006114a2565b634e487b7160e01b875260218252602487fd5b5090516309c860a960e31b8152fd5b905163086b2ac360e41b8152fd5b632688641b60e21b81528390fd5b60409060031901126106b85760043560028110156106b8579060243590565b67ffffffffffffffff811161166d57604052565b634e487b7160e01b600052604160045260246000fd5b90601f8019910116810190811067ffffffffffffffff82111761166d57604052565b60405190600060019081549182811c90808416938415611783575b602094858410811461176f578388528794939291811561174f57506001146116f3575b50506116f192500383611683565b565b60008181527fb10e2d527612073b26eecdfd717e6a320cf44b4afac2b0732d9fcbe2b7fa0cf695935091905b8183106117375750506116f1935082010138806116e3565b8554888401850152948501948794509183019161171f565b9150506116f194925060ff191682840152151560051b82010138806116e3565b634e487b7160e01b85526022600452602485fd5b91607f16916116c0565b60005b8381106117a05750506000910152565b8181015183820152602001611790565b906020916117c98151809281855285808601910161178d565b601f01601f1916010190565b6000546001600160a01b031633036117e957565b60405163118cdaa760e01b8152336004820152602490fd5b8181029291811591840414171561181457565b634e487b7160e01b600052601160045260246000fd5b8115611834570490565b634e487b7160e01b600052601260045260246000fd5b9190820180921161181457565b9060028210156118645752565b634e487b7160e01b600052602160045260246000fd5b67ffffffffffffffff811161166d57601f01601f191660200190565b3d156118c1573d906118a78261187a565b916118b56040519384611683565b82523d6000602084013e565b606090565b9190820391821161181457565b908160209103126106b8575180151581036106b85790565b6040919493926118ff826060810197611857565b60208201520152565b670de0b6b3a764000060016002815b80821161192f57505081600019048111611814570290565b9092806000190481116118145781841661194f575b800292811c90611917565b80920291611944565b600281101561186457611bc8577f00000000000000000000000000000000000000000000000000000000000000007f00000000000000000000000000000000000000000000000000000000000000005b604080516370a0823160e01b80825230600483015291936001600160a01b0393919260209283908590602490829089165afa938415611bbd5790859291600095611b88575b509060248492885197889384928352306004840152165afa938415611b7d57600094611b4e575b50858310611b3d5790806004928651938480926318160ddd60e01b82527f0000000000000000000000000000000000000000000000000000000000000000165afa948515611b335750600094611afe575b5050611abf83611ab9611a8c611afb9795611a86611ae896611aed996118c6565b936118c6565b611ab3611aac87611aa6611aa0858861184a565b87611e48565b9561184a565b918261184a565b90611e48565b9061184a565b60011c7f0000000000000000000000000000000000000000000000000000000000000000611801565b611801565b611af5611908565b9061182a565b90565b8181959293953d8311611b2c575b611b168183611683565b8101031261046c57505191611abf611ae8611a65565b503d611b0c565b513d6000823e3d90fd5b845163224e54d760e01b8152600490fd5b90938282813d8311611b76575b611b658183611683565b8101031261046c5750519238611a14565b503d611b5b565b85513d6000823e3d90fd5b919250938382813d8311611bb6575b611ba18183611683565b8101031261046c5750519284919060246119ed565b503d611b97565b86513d6000823e3d90fd5b6001600160a01b037f00000000000000000000000000000000000000000000000000000000000000008116907f0000000000000000000000000000000000000000000000000000000000000000166119a8565b600281101561186457611df5577f00000000000000000000000000000000000000000000000000000000000000007f00000000000000000000000000000000000000000000000000000000000000005b604080516370a0823160e01b80825230600483015291936001600160a01b0393919260209283908590602490829089165afa938415611bbd5790859291600095611dc0575b509060248492885197889384928352306004840152165afa938415611b7d57600094611d91575b5090806004928651938480926318160ddd60e01b82527f0000000000000000000000000000000000000000000000000000000000000000165afa948515611b335750600094611d5c575b5050611abf83611ab9611d42611afb9795611a86611ae896611aed996118c6565b611ab3611aac87611d56611aa0858861184a565b956118c6565b8181959293953d8311611d8a575b611d748183611683565b8101031261046c57505191611abf611ae8611d21565b503d611d6a565b90938282813d8311611db9575b611da88183611683565b8101031261046c5750519281611cd7565b503d611d9e565b919250938382813d8311611dee575b611dd98183611683565b8101031261046c575051928491906024611cb0565b503d611dcf565b6001600160a01b037f00000000000000000000000000000000000000000000000000000000000000008116907f000000000000000000000000000000000000000000000000000000000000000016611c6b565b90670de0b6b3a76400009182810292818404149015171561181457611afb9161182a565b6020818303126106b85780519067ffffffffffffffff82116106b8570181601f820112156106b8578051611e9f8161187a565b92611ead6040519485611683565b818452602082840101116106b857611afb916020808501910161178d56fea2646970667358221220f61be4ca7e20e89f3932b4948fb0bd84c36d854b69560a3e077d667320103b1164736f6c6343000814003360406080815234620003d65762000d86803803806200001e81620003db565b9283398101608082820312620003d65781516001600160401b039290838111620003d657826200005091830162000401565b906020928382015190858211620003d6576200006e91830162000401565b8186015190926001600160a01b038216929091839003620003d65760600151948151818111620002d6576003908154906001948583811c93168015620003cb575b89841014620003b5578190601f938481116200035f575b508990848311600114620002f857600092620002ec575b505060001982851b1c191690851b1782555b8551928311620002d65760049586548581811c91168015620002cb575b89821014620002b6578281116200026b575b50879184116001146200020057938394918492600095620001f4575b50501b92600019911b1c19161782555b60018060a01b03193381600554161760055560065416176006553315620001dd5760025490838201809211620001c857506000917fddf252ad1be2c89b69c2b068fc378daa952ba7f163c4a11628f55a4df523b3ef9160025533835282815284832084815401905584519384523393a3516109129081620004748239f35b601190634e487b7160e01b6000525260246000fd5b602490600085519163ec442f0560e01b8352820152fd5b0151935038806200013a565b9190601f198416928760005284896000209460005b8b8983831062000253575050501062000238575b50505050811b0182556200014a565b01519060f884600019921b161c191690553880808062000229565b86860151895590970196948501948893500162000215565b87600052886000208380870160051c8201928b8810620002ac575b0160051c019086905b8281106200029f5750506200011e565b600081550186906200028f565b9250819262000286565b602288634e487b7160e01b6000525260246000fd5b90607f16906200010c565b634e487b7160e01b600052604160045260246000fd5b015190503880620000dd565b90879350601f19831691866000528b6000209260005b8d8282106200034857505084116200032f575b505050811b018255620000ef565b015160001983871b60f8161c1916905538808062000321565b8385015186558b979095019493840193016200030e565b90915084600052896000208480850160051c8201928c8610620003ab575b918991869594930160051c01915b8281106200039b575050620000c6565b600081558594508991016200038b565b925081926200037d565b634e487b7160e01b600052602260045260246000fd5b92607f1692620000af565b600080fd5b6040519190601f01601f191682016001600160401b03811183821017620002d657604052565b919080601f84011215620003d65782516001600160401b038111620002d65760209062000437601f8201601f19168301620003db565b92818452828287010111620003d65760005b8181106200045f57508260009394955001015290565b85810183015184820184015282016200044956fe608060408181526004918236101561001657600080fd5b600092833560e01c91826306fdde03146106ac57508163095ea7b31461060257816318160ddd146105e357816323b872dd146104d0578163313ce567146104b457816340c10f19146103ec5781635b8bec55146103c357816370a082311461038c57816395d89b411461026d5781639dc29fac1461017d578163a9059cbb1461012757508063dd62ed3e146100df5763def114b6146100b457600080fd5b346100db57816003193601126100db5760055490516001600160a01b039091168152602090f35b5080fd5b50346100db57806003193601126100db57806020926100fc6107cd565b6101046107e8565b6001600160a01b0391821683526001865283832091168252845220549051908152f35b82843461017a578160031936011261017a57506101426107cd565b9160018060a01b0360065416331461016c575061016560209260243590336107fe565b5160018152f35b905163ec0511b360e01b8152fd5b80fd5b839150346100db57826003193601126100db576101986107cd565b6005549091602435916001600160a01b03908116330361025e578316928315610247578385528460205285852054918383106102135750508184957fddf252ad1be2c89b69c2b068fc378daa952ba7f163c4a11628f55a4df523b3ef936020938688528785520381872055816002540360025551908152a380f35b865163391434e360e21b81526001600160a01b03909216908201908152602081018390526040810184905281906060010390fd5b8551634b637e8f60e11b8152808301869052602490fd5b508451631e29ea2960e11b8152fd5b8383346100db57816003193601126100db57805190828454600181811c90808316928315610382575b602093848410811461036f5783885290811561035357506001146102fe575b505050829003601f01601f191682019267ffffffffffffffff8411838510176102eb57508291826102e7925282610784565b0390f35b634e487b7160e01b815260418552602490fd5b8787529192508591837f8a35acfbc15ff81a39ae7d344fd709f28e8600b4aa8c65c6b64bfe7fe36bd19b5b83851061033f57505050508301018580806102b5565b805488860183015293019284908201610329565b60ff1916878501525050151560051b84010190508580806102b5565b634e487b7160e01b895260228a52602489fd5b91607f1691610296565b5050346100db5760203660031901126100db5760209181906001600160a01b036103b46107cd565b16815280845220549051908152f35b5050346100db57816003193601126100db5760065490516001600160a01b039091168152602090f35b919050346104b057806003193601126104b0576104076107cd565b60055460243592916001600160a01b0391821633036104a0571692831561048b5760025490838201809211610478575084927fddf252ad1be2c89b69c2b068fc378daa952ba7f163c4a11628f55a4df523b3ef9260209260025585855284835280852082815401905551908152a380f35b634e487b7160e01b865260119052602485fd5b84602492519163ec442f0560e01b8352820152fd5b825163294c9fd360e01b81528590fd5b8280fd5b5050346100db57816003193601126100db576020905160128152f35b9050823461017a57606036600319011261017a576104ec6107cd565b6104f46107e8565b60065460443594919391906001600160a01b03848116911681146105d457808352600160205286832033845260205286832054916000198303610540575b6020886101658989896107fe565b8683106105a857811561059157331561057a5750825260016020908152868320338452815291869020908590039055829061016587610532565b8751634a1406b160e11b8152908101849052602490fd5b875163e602df0560e01b8152908101849052602490fd5b8751637dc7a0d960e11b8152339181019182526020820193909352604081018790528291506060010390fd5b50855163ec0511b360e01b8152fd5b5050346100db57816003193601126100db576020906002549051908152f35b9050346104b057816003193601126104b05761061c6107cd565b602435903315610695576001600160a01b031691821561067e57508083602095338152600187528181208582528752205582519081527f8c5be1e5ebec7d5bd14f71427d1e84f3dd0314c0f7b2291e5b200ac8c7c3b925843392a35160018152f35b8351634a1406b160e11b8152908101859052602490fd5b835163e602df0560e01b8152808401869052602490fd5b849084346104b057826003193601126104b05782600354600181811c9080831692831561077a575b602093848410811461036f57838852908115610353575060011461072457505050829003601f01601f191682019267ffffffffffffffff8411838510176102eb57508291826102e7925282610784565b600387529192508591837fc2575a0e9e593c00f959f8c92f12db2869c3395a3b0502d05e2516446f71f85b5b83851061076657505050508301018580806102b5565b805488860183015293019284908201610750565b91607f16916106d4565b6020808252825181830181905290939260005b8281106107b957505060409293506000838284010152601f8019910116010190565b818101860151848201604001528501610797565b600435906001600160a01b03821682036107e357565b600080fd5b602435906001600160a01b03821682036107e357565b916001600160a01b038084169283156108c357169283156108aa5760009083825281602052604082205490838210610878575091604082827fddf252ad1be2c89b69c2b068fc378daa952ba7f163c4a11628f55a4df523b3ef958760209652828652038282205586815220818154019055604051908152a3565b60405163391434e360e21b81526001600160a01b03919091166004820152602481019190915260448101839052606490fd5b60405163ec442f0560e01b815260006004820152602490fd5b604051634b637e8f60e11b815260006004820152602490fdfea2646970667358221220a4188dec5a24c1236a03179956af74460a716e3f3847468e38620d7a4b63d27164736f6c63430008140033",
  "devdoc": {
    "errors": {
      "OwnableInvalidOwner(address)": [
        {
          "details": "The owner is not a valid owner account. (eg. `address(0)`)"
        }
      ],
      "OwnableUnauthorizedAccount(address)": [
        {
          "details": "The caller account is not authorized to perform an operation."
        }
      ]
    },
    "kind": "dev",
    "methods": {
      "addLiquidity()": {
        "details": "Only the owner can add liquidity and only if the prediction is not reported"
      },
      "buyTokensWithETH(uint8,uint256)": {
        "params": {
          "_amountTokenToBuy": "Amount of tokens to purchase",
          "_outcome": "The possible outcome (YES or NO) to buy tokens for"
        }
      },
      "getBuyPriceInEth(uint8,uint256)": {
        "params": {
          "_outcome": "The possible outcome (YES or NO) to buy tokens for",
          "_tradingAmount": "The amount of tokens to buy"
        },
        "returns": {
          "_0": "The total ETH price"
        }
      },
      "getSellPriceInEth(uint8,uint256)": {
        "params": {
          "_outcome": "The possible outcome (YES or NO) to sell tokens for",
          "_tradingAmount": "The amount of tokens to sell"
        },
        "returns": {
          "_0": "The total ETH price"
        }
      },
      "owner()": {
        "details": "Returns the address of the current owner."
      },
      "redeemWinningTokens(uint256)": {
        "details": "Only if the prediction is resolved",
        "params": {
          "_amount": "The amount of winning tokens to redeem"
        }
      },
      "removeLiquidity(uint256)": {
        "details": "Only the owner can remove liquidity and only if the prediction is not reported",
        "params": {
          "_ethToWithdraw": "Amount of ETH to withdraw from liquidity pool"
        }
      },
      "renounceOwnership()": {
        "details": "Leaves the contract without owner. It will not be possible to call `onlyOwner` functions. Can only be called by the current owner. NOTE: Renouncing ownership will leave the contract without an owner, thereby disabling any functionality that is only available to the owner."
      },
      "report(uint8)": {
        "details": "Only the oracle can report the winning outcome and only if the prediction is not reported",
        "params": {
          "_winningOutcome": "The winning outcome (YES or NO)"
        }
      },
      "resolveMarketAndWithdraw()": {
        "details": "Only callable by the owner and only if the prediction is resolved",
        "returns": {
          "ethRedeemed": "The amount of ETH redeemed"
        }
      },
      "sellTokensForEth(uint8,uint256)": {
        "params": {
          "_outcome": "The possible outcome (YES or NO) to sell tokens for",
          "_tradingAmount": "The amount of tokens to sell"
        }
      },
      "transferOwnership(address)": {
        "details": "Transfers ownership of the contract to a new account (`newOwner`). Can only be called by the current owner."
      }
    },
    "version": 1
  },
  "userdoc": {
    "errors": {
      "PredictionMarket__MustProvideETHForInitialLiquidity()": [
        {
          "notice": "Errors //////"
        }
      ]
    },
    "events": {
      "TokensPurchased(address,uint8,uint256,uint256)": {
        "notice": "Events //////"
      }
    },
    "kind": "user",
    "methods": {
      "addLiquidity()": {
        "notice": "Add liquidity to the prediction market and mint tokens"
      },
      "buyTokensWithETH(uint8,uint256)": {
        "notice": "Buy prediction outcome tokens with ETH, need to call priceInETH function first to get right amount of tokens to buy"
      },
      "getBuyPriceInEth(uint8,uint256)": {
        "notice": "Calculate the total ETH price for buying tokens"
      },
      "getPrediction()": {
        "notice": "Get the prediction details"
      },
      "getSellPriceInEth(uint8,uint256)": {
        "notice": "Calculate the total ETH price for selling tokens"
      },
      "i_oracle()": {
        "notice": "Checkpoint 2 ///"
      },
      "i_yesToken()": {
        "notice": "Checkpoint 3 ///"
      },
      "redeemWinningTokens(uint256)": {
        "notice": "Redeem winning tokens for ETH after prediction is resolved, winning tokens are burned and user receives ETH"
      },
      "removeLiquidity(uint256)": {
        "notice": "Remove liquidity from the prediction market and burn respective tokens, if you remove liquidity before prediction ends you got no share of lpReserve"
      },
      "report(uint8)": {
        "notice": "Report the winning outcome for the prediction"
      },
      "resolveMarketAndWithdraw()": {
        "notice": "Owner of contract can redeem winning tokens held by the contract after prediction is resolved and get ETH from the contract including LP revenue and collateral back"
      },
      "s_winningToken()": {
        "notice": "Checkpoint 5 ///"
      },
      "sellTokensForEth(uint8,uint256)": {
        "notice": "Sell prediction outcome tokens for ETH, need to call priceInETH function first to get right amount of tokens to buy"
      }
    },
    "version": 1
  },
  "storageLayout": {
    "storage": [
      {
        "astId": 8,
        "contract": "contracts/PredictionMarket.sol:PredictionMarket",
        "label": "_owner",
        "offset": 0,
        "slot": "0",
        "type": "t_address"
      },
      {
        "astId": 1006,
        "contract": "contracts/PredictionMarket.sol:PredictionMarket",
        "label": "s_question",
        "offset": 0,
        "slot": "1",
        "type": "t_string_storage"
      },
      {
        "astId": 1008,
        "contract": "contracts/PredictionMarket.sol:PredictionMarket",
        "label": "s_ethCollateral",
        "offset": 0,
        "slot": "2",
        "type": "t_uint256"
      },
      {
        "astId": 1010,
        "contract": "contracts/PredictionMarket.sol:PredictionMarket",
        "label": "s_lpTradingRevenue",
        "offset": 0,
        "slot": "3",
        "type": "t_uint256"
      },
      {
        "astId": 1021,
        "contract": "contracts/PredictionMarket.sol:PredictionMarket",
        "label": "s_winningToken",
        "offset": 0,
        "slot": "4",
        "type": "t_contract(PredictionMarketToken)2380"
      },
      {
        "astId": 1023,
        "contract": "contracts/PredictionMarket.sol:PredictionMarket",
        "label": "s_isReported",
        "offset": 20,
        "slot": "4",
        "type": "t_bool"
      }
    ],
    "types": {
      "t_address": {
        "encoding": "inplace",
        "label": "address",
        "numberOfBytes": "20"
      },
      "t_bool": {
        "encoding": "inplace",
        "label": "bool",
        "numberOfBytes": "1"
      },
      "t_contract(PredictionMarketToken)2380": {
        "encoding": "inplace",
        "label": "contract PredictionMarketToken",
        "numberOfBytes": "20"
      },
      "t_string_storage": {
        "encoding": "bytes",
        "label": "string",
        "numberOfBytes": "32"
      },
      "t_uint256": {
        "encoding": "inplace",
        "label": "uint256",
        "numberOfBytes": "32"
      }
    }
  }
}